{
	"introduction.sol": {
		"Introduction": {
			"abi": [
				{
					"anonymous": false,
					"inputs": [
						{
							"indexed": false,
							"internalType": "address",
							"name": "from",
							"type": "address"
						},
						{
							"indexed": false,
							"internalType": "uint256",
							"name": "value",
							"type": "uint256"
						}
					],
					"name": "GetEthHistory",
					"type": "event"
				},
				{
					"stateMutability": "payable",
					"type": "fallback"
				},
				{
					"inputs": [],
					"name": "get",
					"outputs": [
						{
							"internalType": "uint256",
							"name": "",
							"type": "uint256"
						}
					],
					"stateMutability": "nonpayable",
					"type": "function"
				},
				{
					"inputs": [
						{
							"internalType": "address",
							"name": "to",
							"type": "address"
						},
						{
							"internalType": "uint256",
							"name": "value",
							"type": "uint256"
						}
					],
					"name": "send",
					"outputs": [],
					"stateMutability": "nonpayable",
					"type": "function"
				},
				{
					"stateMutability": "payable",
					"type": "receive"
				}
			],
			"devdoc": {
				"kind": "dev",
				"methods": {},
				"version": 1
			},
			"evm": {
				"assembly": "    /* \"introduction.sol\":67:1347  contract Introduction {... */\n  mstore(0x40, 0x80)\n  callvalue\n  dup1\n  iszero\n  tag_1\n  jumpi\n  0x00\n  dup1\n  revert\ntag_1:\n  pop\n  dataSize(sub_0)\n  dup1\n  dataOffset(sub_0)\n  0x00\n  codecopy\n  0x00\n  return\nstop\n\nsub_0: assembly {\n        /* \"introduction.sol\":67:1347  contract Introduction {... */\n      mstore(0x40, 0x80)\n      jumpi(tag_1, lt(calldatasize, 0x04))\n      shr(0xe0, calldataload(0x00))\n      dup1\n      0x6d4ce63c\n      eq\n      tag_3\n      jumpi\n      dup1\n      0xd0679d34\n      eq\n      tag_4\n      jumpi\n      jump(tag_2)\n    tag_1:\n      jumpi(tag_2, calldatasize)\n      stop\n    tag_2:\n      stop\n        /* \"introduction.sol\":428:836  function get() public returns (uint256) {... */\n    tag_3:\n      callvalue\n      dup1\n      iszero\n      tag_9\n      jumpi\n      0x00\n      dup1\n      revert\n    tag_9:\n      pop\n      tag_10\n      tag_11\n      jump\t// in\n    tag_10:\n      mload(0x40)\n      tag_12\n      swap2\n      swap1\n      tag_13\n      jump\t// in\n    tag_12:\n      mload(0x40)\n      dup1\n      swap2\n      sub\n      swap1\n      return\n        /* \"introduction.sol\":913:1271  function send(address to, uint value) external {... */\n    tag_4:\n      callvalue\n      dup1\n      iszero\n      tag_14\n      jumpi\n      0x00\n      dup1\n      revert\n    tag_14:\n      pop\n      tag_15\n      0x04\n      dup1\n      calldatasize\n      sub\n      dup2\n      add\n      swap1\n      tag_16\n      swap2\n      swap1\n      tag_17\n      jump\t// in\n    tag_16:\n      tag_18\n      jump\t// in\n    tag_15:\n      stop\n        /* \"introduction.sol\":428:836  function get() public returns (uint256) {... */\n    tag_11:\n        /* \"introduction.sol\":459:466  uint256 */\n      0x00\n        /* \"introduction.sol\":704:755  GetEthHistory(address(this), address(this).balance) */\n      0x84413088b93d3267bed7d5c9f1078745b5d5b8b559f89dd34a8cca692287647d\n        /* \"introduction.sol\":726:730  this */\n      address\n        /* \"introduction.sol\":733:754  address(this).balance */\n      selfbalance\n        /* \"introduction.sol\":704:755  GetEthHistory(address(this), address(this).balance) */\n      mload(0x40)\n      tag_20\n      swap3\n      swap2\n      swap1\n      tag_21\n      jump\t// in\n    tag_20:\n      mload(0x40)\n      dup1\n      swap2\n      sub\n      swap1\n      log1\n        /* \"introduction.sol\":805:826  address(this).balance */\n      selfbalance\n        /* \"introduction.sol\":798:826  return address(this).balance */\n      swap1\n      pop\n        /* \"introduction.sol\":428:836  function get() public returns (uint256) {... */\n      swap1\n      jump\t// out\n        /* \"introduction.sol\":913:1271  function send(address to, uint value) external {... */\n    tag_18:\n        /* \"introduction.sol\":1129:1141  bool success */\n      0x00\n        /* \"introduction.sol\":1143:1160  bytes memory data */\n      dup1\n        /* \"introduction.sol\":1164:1166  to */\n      dup4\n        /* \"introduction.sol\":1164:1171  to.call */\n      0xffffffffffffffffffffffffffffffffffffffff\n      and\n        /* \"introduction.sol\":1179:1184  value */\n      dup4\n        /* \"introduction.sol\":1164:1189  to.call{value: value}(\"\") */\n      mload(0x40)\n      tag_23\n      swap1\n      tag_24\n      jump\t// in\n    tag_23:\n      0x00\n      mload(0x40)\n      dup1\n      dup4\n      sub\n      dup2\n      dup6\n      dup8\n      gas\n      call\n      swap3\n      pop\n      pop\n      pop\n      returndatasize\n      dup1\n      0x00\n      dup2\n      eq\n      tag_27\n      jumpi\n      mload(0x40)\n      swap2\n      pop\n      and(add(returndatasize, 0x3f), not(0x1f))\n      dup3\n      add\n      0x40\n      mstore\n      returndatasize\n      dup3\n      mstore\n      returndatasize\n      0x00\n      0x20\n      dup5\n      add\n      returndatacopy\n      jump(tag_26)\n    tag_27:\n      0x60\n      swap2\n      pop\n    tag_26:\n      pop\n        /* \"introduction.sol\":1128:1189  (bool success, bytes memory data) = to.call{value: value}(\"\") */\n      swap2\n      pop\n      swap2\n      pop\n        /* \"introduction.sol\":1221:1225  true */\n      0x01\n        /* \"introduction.sol\":1210:1225  success == true */\n      iszero\n      iszero\n        /* \"introduction.sol\":1210:1217  success */\n      dup3\n        /* \"introduction.sol\":1210:1225  success == true */\n      iszero\n      iszero\n      eq\n        /* \"introduction.sol\":1202:1263  require(success == true, \"Error occurred when sending ether\") */\n      tag_28\n      jumpi\n      mload(0x40)\n      0x08c379a000000000000000000000000000000000000000000000000000000000\n      dup2\n      mstore\n      0x04\n      add\n      tag_29\n      swap1\n      tag_30\n      jump\t// in\n    tag_29:\n      mload(0x40)\n      dup1\n      swap2\n      sub\n      swap1\n      revert\n    tag_28:\n        /* \"introduction.sol\":960:1271  {... */\n      pop\n      pop\n        /* \"introduction.sol\":913:1271  function send(address to, uint value) external {... */\n      pop\n      pop\n      jump\t// out\n        /* \"#utility.yul\":7:84   */\n    tag_31:\n        /* \"#utility.yul\":44:51   */\n      0x00\n        /* \"#utility.yul\":73:78   */\n      dup2\n        /* \"#utility.yul\":62:78   */\n      swap1\n      pop\n        /* \"#utility.yul\":7:84   */\n      swap2\n      swap1\n      pop\n      jump\t// out\n        /* \"#utility.yul\":90:208   */\n    tag_32:\n        /* \"#utility.yul\":177:201   */\n      tag_52\n        /* \"#utility.yul\":195:200   */\n      dup2\n        /* \"#utility.yul\":177:201   */\n      tag_31\n      jump\t// in\n    tag_52:\n        /* \"#utility.yul\":172:175   */\n      dup3\n        /* \"#utility.yul\":165:202   */\n      mstore\n        /* \"#utility.yul\":90:208   */\n      pop\n      pop\n      jump\t// out\n        /* \"#utility.yul\":214:436   */\n    tag_13:\n        /* \"#utility.yul\":307:311   */\n      0x00\n        /* \"#utility.yul\":345:347   */\n      0x20\n        /* \"#utility.yul\":334:343   */\n      dup3\n        /* \"#utility.yul\":330:348   */\n      add\n        /* \"#utility.yul\":322:348   */\n      swap1\n      pop\n        /* \"#utility.yul\":358:429   */\n      tag_54\n        /* \"#utility.yul\":426:427   */\n      0x00\n        /* \"#utility.yul\":415:424   */\n      dup4\n        /* \"#utility.yul\":411:428   */\n      add\n        /* \"#utility.yul\":402:408   */\n      dup5\n        /* \"#utility.yul\":358:429   */\n      tag_32\n      jump\t// in\n    tag_54:\n        /* \"#utility.yul\":214:436   */\n      swap3\n      swap2\n      pop\n      pop\n      jump\t// out\n        /* \"#utility.yul\":523:640   */\n    tag_34:\n        /* \"#utility.yul\":632:633   */\n      0x00\n        /* \"#utility.yul\":629:630   */\n      dup1\n        /* \"#utility.yul\":622:634   */\n      revert\n        /* \"#utility.yul\":769:895   */\n    tag_36:\n        /* \"#utility.yul\":806:813   */\n      0x00\n        /* \"#utility.yul\":846:888   */\n      0xffffffffffffffffffffffffffffffffffffffff\n        /* \"#utility.yul\":839:844   */\n      dup3\n        /* \"#utility.yul\":835:889   */\n      and\n        /* \"#utility.yul\":824:889   */\n      swap1\n      pop\n        /* \"#utility.yul\":769:895   */\n      swap2\n      swap1\n      pop\n      jump\t// out\n        /* \"#utility.yul\":901:997   */\n    tag_37:\n        /* \"#utility.yul\":938:945   */\n      0x00\n        /* \"#utility.yul\":967:991   */\n      tag_60\n        /* \"#utility.yul\":985:990   */\n      dup3\n        /* \"#utility.yul\":967:991   */\n      tag_36\n      jump\t// in\n    tag_60:\n        /* \"#utility.yul\":956:991   */\n      swap1\n      pop\n        /* \"#utility.yul\":901:997   */\n      swap2\n      swap1\n      pop\n      jump\t// out\n        /* \"#utility.yul\":1003:1125   */\n    tag_38:\n        /* \"#utility.yul\":1076:1100   */\n      tag_62\n        /* \"#utility.yul\":1094:1099   */\n      dup2\n        /* \"#utility.yul\":1076:1100   */\n      tag_37\n      jump\t// in\n    tag_62:\n        /* \"#utility.yul\":1069:1074   */\n      dup2\n        /* \"#utility.yul\":1066:1101   */\n      eq\n        /* \"#utility.yul\":1056:1119   */\n      tag_63\n      jumpi\n        /* \"#utility.yul\":1115:1116   */\n      0x00\n        /* \"#utility.yul\":1112:1113   */\n      dup1\n        /* \"#utility.yul\":1105:1117   */\n      revert\n        /* \"#utility.yul\":1056:1119   */\n    tag_63:\n        /* \"#utility.yul\":1003:1125   */\n      pop\n      jump\t// out\n        /* \"#utility.yul\":1131:1270   */\n    tag_39:\n        /* \"#utility.yul\":1177:1182   */\n      0x00\n        /* \"#utility.yul\":1215:1221   */\n      dup2\n        /* \"#utility.yul\":1202:1222   */\n      calldataload\n        /* \"#utility.yul\":1193:1222   */\n      swap1\n      pop\n        /* \"#utility.yul\":1231:1264   */\n      tag_65\n        /* \"#utility.yul\":1258:1263   */\n      dup2\n        /* \"#utility.yul\":1231:1264   */\n      tag_38\n      jump\t// in\n    tag_65:\n        /* \"#utility.yul\":1131:1270   */\n      swap3\n      swap2\n      pop\n      pop\n      jump\t// out\n        /* \"#utility.yul\":1276:1398   */\n    tag_40:\n        /* \"#utility.yul\":1349:1373   */\n      tag_67\n        /* \"#utility.yul\":1367:1372   */\n      dup2\n        /* \"#utility.yul\":1349:1373   */\n      tag_31\n      jump\t// in\n    tag_67:\n        /* \"#utility.yul\":1342:1347   */\n      dup2\n        /* \"#utility.yul\":1339:1374   */\n      eq\n        /* \"#utility.yul\":1329:1392   */\n      tag_68\n      jumpi\n        /* \"#utility.yul\":1388:1389   */\n      0x00\n        /* \"#utility.yul\":1385:1386   */\n      dup1\n        /* \"#utility.yul\":1378:1390   */\n      revert\n        /* \"#utility.yul\":1329:1392   */\n    tag_68:\n        /* \"#utility.yul\":1276:1398   */\n      pop\n      jump\t// out\n        /* \"#utility.yul\":1404:1543   */\n    tag_41:\n        /* \"#utility.yul\":1450:1455   */\n      0x00\n        /* \"#utility.yul\":1488:1494   */\n      dup2\n        /* \"#utility.yul\":1475:1495   */\n      calldataload\n        /* \"#utility.yul\":1466:1495   */\n      swap1\n      pop\n        /* \"#utility.yul\":1504:1537   */\n      tag_70\n        /* \"#utility.yul\":1531:1536   */\n      dup2\n        /* \"#utility.yul\":1504:1537   */\n      tag_40\n      jump\t// in\n    tag_70:\n        /* \"#utility.yul\":1404:1543   */\n      swap3\n      swap2\n      pop\n      pop\n      jump\t// out\n        /* \"#utility.yul\":1549:2023   */\n    tag_17:\n        /* \"#utility.yul\":1617:1623   */\n      0x00\n        /* \"#utility.yul\":1625:1631   */\n      dup1\n        /* \"#utility.yul\":1674:1676   */\n      0x40\n        /* \"#utility.yul\":1662:1671   */\n      dup4\n        /* \"#utility.yul\":1653:1660   */\n      dup6\n        /* \"#utility.yul\":1649:1672   */\n      sub\n        /* \"#utility.yul\":1645:1677   */\n      slt\n        /* \"#utility.yul\":1642:1761   */\n      iszero\n      tag_72\n      jumpi\n        /* \"#utility.yul\":1680:1759   */\n      tag_73\n      tag_34\n      jump\t// in\n    tag_73:\n        /* \"#utility.yul\":1642:1761   */\n    tag_72:\n        /* \"#utility.yul\":1800:1801   */\n      0x00\n        /* \"#utility.yul\":1825:1878   */\n      tag_74\n        /* \"#utility.yul\":1870:1877   */\n      dup6\n        /* \"#utility.yul\":1861:1867   */\n      dup3\n        /* \"#utility.yul\":1850:1859   */\n      dup7\n        /* \"#utility.yul\":1846:1868   */\n      add\n        /* \"#utility.yul\":1825:1878   */\n      tag_39\n      jump\t// in\n    tag_74:\n        /* \"#utility.yul\":1815:1878   */\n      swap3\n      pop\n        /* \"#utility.yul\":1771:1888   */\n      pop\n        /* \"#utility.yul\":1927:1929   */\n      0x20\n        /* \"#utility.yul\":1953:2006   */\n      tag_75\n        /* \"#utility.yul\":1998:2005   */\n      dup6\n        /* \"#utility.yul\":1989:1995   */\n      dup3\n        /* \"#utility.yul\":1978:1987   */\n      dup7\n        /* \"#utility.yul\":1974:1996   */\n      add\n        /* \"#utility.yul\":1953:2006   */\n      tag_41\n      jump\t// in\n    tag_75:\n        /* \"#utility.yul\":1943:2006   */\n      swap2\n      pop\n        /* \"#utility.yul\":1898:2016   */\n      pop\n        /* \"#utility.yul\":1549:2023   */\n      swap3\n      pop\n      swap3\n      swap1\n      pop\n      jump\t// out\n        /* \"#utility.yul\":2029:2147   */\n    tag_42:\n        /* \"#utility.yul\":2116:2140   */\n      tag_77\n        /* \"#utility.yul\":2134:2139   */\n      dup2\n        /* \"#utility.yul\":2116:2140   */\n      tag_37\n      jump\t// in\n    tag_77:\n        /* \"#utility.yul\":2111:2114   */\n      dup3\n        /* \"#utility.yul\":2104:2141   */\n      mstore\n        /* \"#utility.yul\":2029:2147   */\n      pop\n      pop\n      jump\t// out\n        /* \"#utility.yul\":2153:2485   */\n    tag_21:\n        /* \"#utility.yul\":2274:2278   */\n      0x00\n        /* \"#utility.yul\":2312:2314   */\n      0x40\n        /* \"#utility.yul\":2301:2310   */\n      dup3\n        /* \"#utility.yul\":2297:2315   */\n      add\n        /* \"#utility.yul\":2289:2315   */\n      swap1\n      pop\n        /* \"#utility.yul\":2325:2396   */\n      tag_79\n        /* \"#utility.yul\":2393:2394   */\n      0x00\n        /* \"#utility.yul\":2382:2391   */\n      dup4\n        /* \"#utility.yul\":2378:2395   */\n      add\n        /* \"#utility.yul\":2369:2375   */\n      dup6\n        /* \"#utility.yul\":2325:2396   */\n      tag_42\n      jump\t// in\n    tag_79:\n        /* \"#utility.yul\":2406:2478   */\n      tag_80\n        /* \"#utility.yul\":2474:2476   */\n      0x20\n        /* \"#utility.yul\":2463:2472   */\n      dup4\n        /* \"#utility.yul\":2459:2477   */\n      add\n        /* \"#utility.yul\":2450:2456   */\n      dup5\n        /* \"#utility.yul\":2406:2478   */\n      tag_32\n      jump\t// in\n    tag_80:\n        /* \"#utility.yul\":2153:2485   */\n      swap4\n      swap3\n      pop\n      pop\n      pop\n      jump\t// out\n        /* \"#utility.yul\":2491:2638   */\n    tag_43:\n        /* \"#utility.yul\":2592:2603   */\n      0x00\n        /* \"#utility.yul\":2629:2632   */\n      dup2\n        /* \"#utility.yul\":2614:2632   */\n      swap1\n      pop\n        /* \"#utility.yul\":2491:2638   */\n      swap3\n      swap2\n      pop\n      pop\n      jump\t// out\n        /* \"#utility.yul\":2644:2758   */\n    tag_44:\n      pop\n      jump\t// out\n        /* \"#utility.yul\":2764:3162   */\n    tag_45:\n        /* \"#utility.yul\":2923:2926   */\n      0x00\n        /* \"#utility.yul\":2944:3027   */\n      tag_84\n        /* \"#utility.yul\":3025:3026   */\n      0x00\n        /* \"#utility.yul\":3020:3023   */\n      dup4\n        /* \"#utility.yul\":2944:3027   */\n      tag_43\n      jump\t// in\n    tag_84:\n        /* \"#utility.yul\":2937:3027   */\n      swap2\n      pop\n        /* \"#utility.yul\":3036:3129   */\n      tag_85\n        /* \"#utility.yul\":3125:3128   */\n      dup3\n        /* \"#utility.yul\":3036:3129   */\n      tag_44\n      jump\t// in\n    tag_85:\n        /* \"#utility.yul\":3154:3155   */\n      0x00\n        /* \"#utility.yul\":3149:3152   */\n      dup3\n        /* \"#utility.yul\":3145:3156   */\n      add\n        /* \"#utility.yul\":3138:3156   */\n      swap1\n      pop\n        /* \"#utility.yul\":2764:3162   */\n      swap2\n      swap1\n      pop\n      jump\t// out\n        /* \"#utility.yul\":3168:3547   */\n    tag_24:\n        /* \"#utility.yul\":3352:3355   */\n      0x00\n        /* \"#utility.yul\":3374:3521   */\n      tag_87\n        /* \"#utility.yul\":3517:3520   */\n      dup3\n        /* \"#utility.yul\":3374:3521   */\n      tag_45\n      jump\t// in\n    tag_87:\n        /* \"#utility.yul\":3367:3521   */\n      swap2\n      pop\n        /* \"#utility.yul\":3538:3541   */\n      dup2\n        /* \"#utility.yul\":3531:3541   */\n      swap1\n      pop\n        /* \"#utility.yul\":3168:3547   */\n      swap2\n      swap1\n      pop\n      jump\t// out\n        /* \"#utility.yul\":3553:3722   */\n    tag_46:\n        /* \"#utility.yul\":3637:3648   */\n      0x00\n        /* \"#utility.yul\":3671:3677   */\n      dup3\n        /* \"#utility.yul\":3666:3669   */\n      dup3\n        /* \"#utility.yul\":3659:3678   */\n      mstore\n        /* \"#utility.yul\":3711:3715   */\n      0x20\n        /* \"#utility.yul\":3706:3709   */\n      dup3\n        /* \"#utility.yul\":3702:3716   */\n      add\n        /* \"#utility.yul\":3687:3716   */\n      swap1\n      pop\n        /* \"#utility.yul\":3553:3722   */\n      swap3\n      swap2\n      pop\n      pop\n      jump\t// out\n        /* \"#utility.yul\":3728:3948   */\n    tag_47:\n        /* \"#utility.yul\":3868:3902   */\n      0x4572726f72206f63637572726564207768656e2073656e64696e672065746865\n        /* \"#utility.yul\":3864:3865   */\n      0x00\n        /* \"#utility.yul\":3856:3862   */\n      dup3\n        /* \"#utility.yul\":3852:3866   */\n      add\n        /* \"#utility.yul\":3845:3903   */\n      mstore\n        /* \"#utility.yul\":3937:3940   */\n      0x7200000000000000000000000000000000000000000000000000000000000000\n        /* \"#utility.yul\":3932:3934   */\n      0x20\n        /* \"#utility.yul\":3924:3930   */\n      dup3\n        /* \"#utility.yul\":3920:3935   */\n      add\n        /* \"#utility.yul\":3913:3941   */\n      mstore\n        /* \"#utility.yul\":3728:3948   */\n      pop\n      jump\t// out\n        /* \"#utility.yul\":3954:4320   */\n    tag_48:\n        /* \"#utility.yul\":4096:4099   */\n      0x00\n        /* \"#utility.yul\":4117:4184   */\n      tag_91\n        /* \"#utility.yul\":4181:4183   */\n      0x21\n        /* \"#utility.yul\":4176:4179   */\n      dup4\n        /* \"#utility.yul\":4117:4184   */\n      tag_46\n      jump\t// in\n    tag_91:\n        /* \"#utility.yul\":4110:4184   */\n      swap2\n      pop\n        /* \"#utility.yul\":4193:4286   */\n      tag_92\n        /* \"#utility.yul\":4282:4285   */\n      dup3\n        /* \"#utility.yul\":4193:4286   */\n      tag_47\n      jump\t// in\n    tag_92:\n        /* \"#utility.yul\":4311:4313   */\n      0x40\n        /* \"#utility.yul\":4306:4309   */\n      dup3\n        /* \"#utility.yul\":4302:4314   */\n      add\n        /* \"#utility.yul\":4295:4314   */\n      swap1\n      pop\n        /* \"#utility.yul\":3954:4320   */\n      swap2\n      swap1\n      pop\n      jump\t// out\n        /* \"#utility.yul\":4326:4745   */\n    tag_30:\n        /* \"#utility.yul\":4492:4496   */\n      0x00\n        /* \"#utility.yul\":4530:4532   */\n      0x20\n        /* \"#utility.yul\":4519:4528   */\n      dup3\n        /* \"#utility.yul\":4515:4533   */\n      add\n        /* \"#utility.yul\":4507:4533   */\n      swap1\n      pop\n        /* \"#utility.yul\":4579:4588   */\n      dup2\n        /* \"#utility.yul\":4573:4577   */\n      dup2\n        /* \"#utility.yul\":4569:4589   */\n      sub\n        /* \"#utility.yul\":4565:4566   */\n      0x00\n        /* \"#utility.yul\":4554:4563   */\n      dup4\n        /* \"#utility.yul\":4550:4567   */\n      add\n        /* \"#utility.yul\":4543:4590   */\n      mstore\n        /* \"#utility.yul\":4607:4738   */\n      tag_94\n        /* \"#utility.yul\":4733:4737   */\n      dup2\n        /* \"#utility.yul\":4607:4738   */\n      tag_48\n      jump\t// in\n    tag_94:\n        /* \"#utility.yul\":4599:4738   */\n      swap1\n      pop\n        /* \"#utility.yul\":4326:4745   */\n      swap2\n      swap1\n      pop\n      jump\t// out\n\n    auxdata: 0xa26469706673582212201c151e63b6966d799778bbc80548dd851c7b0bf7b5a799888d6cdb38846181aa64736f6c634300081a0033\n}\n",
				"bytecode": {
					"linkReferences": {},
					"object": "6080604052348015600e575f80fd5b506103c08061001c5f395ff3fe60806040526004361061002c575f3560e01c80636d4ce63c14610035578063d0679d341461005f57610033565b3661003357005b005b348015610040575f80fd5b50610049610087565b6040516100569190610196565b60405180910390f35b34801561006a575f80fd5b5061008560048036038101906100809190610237565b6100c7565b005b5f7f84413088b93d3267bed7d5c9f1078745b5d5b8b559f89dd34a8cca692287647d30476040516100b9929190610284565b60405180910390a147905090565b5f808373ffffffffffffffffffffffffffffffffffffffff16836040516100ed906102d8565b5f6040518083038185875af1925050503d805f8114610127576040519150601f19603f3d011682016040523d82523d5f602084013e61012c565b606091505b50915091506001151582151514610178576040517f08c379a000000000000000000000000000000000000000000000000000000000815260040161016f9061036c565b60405180910390fd5b50505050565b5f819050919050565b6101908161017e565b82525050565b5f6020820190506101a95f830184610187565b92915050565b5f80fd5b5f73ffffffffffffffffffffffffffffffffffffffff82169050919050565b5f6101dc826101b3565b9050919050565b6101ec816101d2565b81146101f6575f80fd5b50565b5f81359050610207816101e3565b92915050565b6102168161017e565b8114610220575f80fd5b50565b5f813590506102318161020d565b92915050565b5f806040838503121561024d5761024c6101af565b5b5f61025a858286016101f9565b925050602061026b85828601610223565b9150509250929050565b61027e816101d2565b82525050565b5f6040820190506102975f830185610275565b6102a46020830184610187565b9392505050565b5f81905092915050565b50565b5f6102c35f836102ab565b91506102ce826102b5565b5f82019050919050565b5f6102e2826102b8565b9150819050919050565b5f82825260208201905092915050565b7f4572726f72206f63637572726564207768656e2073656e64696e6720657468655f8201527f7200000000000000000000000000000000000000000000000000000000000000602082015250565b5f6103566021836102ec565b9150610361826102fc565b604082019050919050565b5f6020820190508181035f8301526103838161034a565b905091905056fea26469706673582212201c151e63b6966d799778bbc80548dd851c7b0bf7b5a799888d6cdb38846181aa64736f6c634300081a0033",
					"opcodes": "PUSH1 0x80 PUSH1 0x40 MSTORE CALLVALUE DUP1 ISZERO PUSH1 0xE JUMPI PUSH0 DUP1 REVERT JUMPDEST POP PUSH2 0x3C0 DUP1 PUSH2 0x1C PUSH0 CODECOPY PUSH0 RETURN INVALID PUSH1 0x80 PUSH1 0x40 MSTORE PUSH1 0x4 CALLDATASIZE LT PUSH2 0x2C JUMPI PUSH0 CALLDATALOAD PUSH1 0xE0 SHR DUP1 PUSH4 0x6D4CE63C EQ PUSH2 0x35 JUMPI DUP1 PUSH4 0xD0679D34 EQ PUSH2 0x5F JUMPI PUSH2 0x33 JUMP JUMPDEST CALLDATASIZE PUSH2 0x33 JUMPI STOP JUMPDEST STOP JUMPDEST CALLVALUE DUP1 ISZERO PUSH2 0x40 JUMPI PUSH0 DUP1 REVERT JUMPDEST POP PUSH2 0x49 PUSH2 0x87 JUMP JUMPDEST PUSH1 0x40 MLOAD PUSH2 0x56 SWAP2 SWAP1 PUSH2 0x196 JUMP JUMPDEST PUSH1 0x40 MLOAD DUP1 SWAP2 SUB SWAP1 RETURN JUMPDEST CALLVALUE DUP1 ISZERO PUSH2 0x6A JUMPI PUSH0 DUP1 REVERT JUMPDEST POP PUSH2 0x85 PUSH1 0x4 DUP1 CALLDATASIZE SUB DUP2 ADD SWAP1 PUSH2 0x80 SWAP2 SWAP1 PUSH2 0x237 JUMP JUMPDEST PUSH2 0xC7 JUMP JUMPDEST STOP JUMPDEST PUSH0 PUSH32 0x84413088B93D3267BED7D5C9F1078745B5D5B8B559F89DD34A8CCA692287647D ADDRESS SELFBALANCE PUSH1 0x40 MLOAD PUSH2 0xB9 SWAP3 SWAP2 SWAP1 PUSH2 0x284 JUMP JUMPDEST PUSH1 0x40 MLOAD DUP1 SWAP2 SUB SWAP1 LOG1 SELFBALANCE SWAP1 POP SWAP1 JUMP JUMPDEST PUSH0 DUP1 DUP4 PUSH20 0xFFFFFFFFFFFFFFFFFFFFFFFFFFFFFFFFFFFFFFFF AND DUP4 PUSH1 0x40 MLOAD PUSH2 0xED SWAP1 PUSH2 0x2D8 JUMP JUMPDEST PUSH0 PUSH1 0x40 MLOAD DUP1 DUP4 SUB DUP2 DUP6 DUP8 GAS CALL SWAP3 POP POP POP RETURNDATASIZE DUP1 PUSH0 DUP2 EQ PUSH2 0x127 JUMPI PUSH1 0x40 MLOAD SWAP2 POP PUSH1 0x1F NOT PUSH1 0x3F RETURNDATASIZE ADD AND DUP3 ADD PUSH1 0x40 MSTORE RETURNDATASIZE DUP3 MSTORE RETURNDATASIZE PUSH0 PUSH1 0x20 DUP5 ADD RETURNDATACOPY PUSH2 0x12C JUMP JUMPDEST PUSH1 0x60 SWAP2 POP JUMPDEST POP SWAP2 POP SWAP2 POP PUSH1 0x1 ISZERO ISZERO DUP3 ISZERO ISZERO EQ PUSH2 0x178 JUMPI PUSH1 0x40 MLOAD PUSH32 0x8C379A000000000000000000000000000000000000000000000000000000000 DUP2 MSTORE PUSH1 0x4 ADD PUSH2 0x16F SWAP1 PUSH2 0x36C JUMP JUMPDEST PUSH1 0x40 MLOAD DUP1 SWAP2 SUB SWAP1 REVERT JUMPDEST POP POP POP POP JUMP JUMPDEST PUSH0 DUP2 SWAP1 POP SWAP2 SWAP1 POP JUMP JUMPDEST PUSH2 0x190 DUP2 PUSH2 0x17E JUMP JUMPDEST DUP3 MSTORE POP POP JUMP JUMPDEST PUSH0 PUSH1 0x20 DUP3 ADD SWAP1 POP PUSH2 0x1A9 PUSH0 DUP4 ADD DUP5 PUSH2 0x187 JUMP JUMPDEST SWAP3 SWAP2 POP POP JUMP JUMPDEST PUSH0 DUP1 REVERT JUMPDEST PUSH0 PUSH20 0xFFFFFFFFFFFFFFFFFFFFFFFFFFFFFFFFFFFFFFFF DUP3 AND SWAP1 POP SWAP2 SWAP1 POP JUMP JUMPDEST PUSH0 PUSH2 0x1DC DUP3 PUSH2 0x1B3 JUMP JUMPDEST SWAP1 POP SWAP2 SWAP1 POP JUMP JUMPDEST PUSH2 0x1EC DUP2 PUSH2 0x1D2 JUMP JUMPDEST DUP2 EQ PUSH2 0x1F6 JUMPI PUSH0 DUP1 REVERT JUMPDEST POP JUMP JUMPDEST PUSH0 DUP2 CALLDATALOAD SWAP1 POP PUSH2 0x207 DUP2 PUSH2 0x1E3 JUMP JUMPDEST SWAP3 SWAP2 POP POP JUMP JUMPDEST PUSH2 0x216 DUP2 PUSH2 0x17E JUMP JUMPDEST DUP2 EQ PUSH2 0x220 JUMPI PUSH0 DUP1 REVERT JUMPDEST POP JUMP JUMPDEST PUSH0 DUP2 CALLDATALOAD SWAP1 POP PUSH2 0x231 DUP2 PUSH2 0x20D JUMP JUMPDEST SWAP3 SWAP2 POP POP JUMP JUMPDEST PUSH0 DUP1 PUSH1 0x40 DUP4 DUP6 SUB SLT ISZERO PUSH2 0x24D JUMPI PUSH2 0x24C PUSH2 0x1AF JUMP JUMPDEST JUMPDEST PUSH0 PUSH2 0x25A DUP6 DUP3 DUP7 ADD PUSH2 0x1F9 JUMP JUMPDEST SWAP3 POP POP PUSH1 0x20 PUSH2 0x26B DUP6 DUP3 DUP7 ADD PUSH2 0x223 JUMP JUMPDEST SWAP2 POP POP SWAP3 POP SWAP3 SWAP1 POP JUMP JUMPDEST PUSH2 0x27E DUP2 PUSH2 0x1D2 JUMP JUMPDEST DUP3 MSTORE POP POP JUMP JUMPDEST PUSH0 PUSH1 0x40 DUP3 ADD SWAP1 POP PUSH2 0x297 PUSH0 DUP4 ADD DUP6 PUSH2 0x275 JUMP JUMPDEST PUSH2 0x2A4 PUSH1 0x20 DUP4 ADD DUP5 PUSH2 0x187 JUMP JUMPDEST SWAP4 SWAP3 POP POP POP JUMP JUMPDEST PUSH0 DUP2 SWAP1 POP SWAP3 SWAP2 POP POP JUMP JUMPDEST POP JUMP JUMPDEST PUSH0 PUSH2 0x2C3 PUSH0 DUP4 PUSH2 0x2AB JUMP JUMPDEST SWAP2 POP PUSH2 0x2CE DUP3 PUSH2 0x2B5 JUMP JUMPDEST PUSH0 DUP3 ADD SWAP1 POP SWAP2 SWAP1 POP JUMP JUMPDEST PUSH0 PUSH2 0x2E2 DUP3 PUSH2 0x2B8 JUMP JUMPDEST SWAP2 POP DUP2 SWAP1 POP SWAP2 SWAP1 POP JUMP JUMPDEST PUSH0 DUP3 DUP3 MSTORE PUSH1 0x20 DUP3 ADD SWAP1 POP SWAP3 SWAP2 POP POP JUMP JUMPDEST PUSH32 0x4572726F72206F63637572726564207768656E2073656E64696E672065746865 PUSH0 DUP3 ADD MSTORE PUSH32 0x7200000000000000000000000000000000000000000000000000000000000000 PUSH1 0x20 DUP3 ADD MSTORE POP JUMP JUMPDEST PUSH0 PUSH2 0x356 PUSH1 0x21 DUP4 PUSH2 0x2EC JUMP JUMPDEST SWAP2 POP PUSH2 0x361 DUP3 PUSH2 0x2FC JUMP JUMPDEST PUSH1 0x40 DUP3 ADD SWAP1 POP SWAP2 SWAP1 POP JUMP JUMPDEST PUSH0 PUSH1 0x20 DUP3 ADD SWAP1 POP DUP2 DUP2 SUB PUSH0 DUP4 ADD MSTORE PUSH2 0x383 DUP2 PUSH2 0x34A JUMP JUMPDEST SWAP1 POP SWAP2 SWAP1 POP JUMP INVALID LOG2 PUSH5 0x6970667358 0x22 SLT KECCAK256 SHR ISZERO 0x1E PUSH4 0xB6966D79 SWAP8 PUSH25 0xBBC80548DD851C7B0BF7B5A799888D6CDB38846181AA64736F PUSH13 0x634300081A0033000000000000 "
				},
				"gasEstimates": {
					"creation": {
						"codeDepositCost": "192000",
						"executionCost": "230",
						"totalCost": "192230"
					},
					"external": {
						"": "106",
						"get()": "infinite",
						"send(address,uint256)": "infinite"
					}
				},
				"methodIdentifiers": {
					"get()": "6d4ce63c",
					"send(address,uint256)": "d0679d34"
				}
			},
			"storageLayout": {
				"storage": [],
				"types": null
			},
			"userdoc": {
				"kind": "user",
				"methods": {},
				"version": 1
			}
		}
	}
}